{
  "contractName": "Betting",
  "abi": [
    {
      "constant": true,
      "inputs": [],
      "name": "better2",
      "outputs": [
        {
          "name": "",
          "type": "address"
        }
      ],
      "payable": false,
      "stateMutability": "view",
      "type": "function"
    },
    {
      "constant": true,
      "inputs": [],
      "name": "totalPot",
      "outputs": [
        {
          "name": "",
          "type": "uint256"
        }
      ],
      "payable": false,
      "stateMutability": "view",
      "type": "function"
    },
    {
      "constant": true,
      "inputs": [],
      "name": "teamName2",
      "outputs": [
        {
          "name": "",
          "type": "string"
        }
      ],
      "payable": false,
      "stateMutability": "view",
      "type": "function"
    },
    {
      "constant": true,
      "inputs": [],
      "name": "teamName1",
      "outputs": [
        {
          "name": "",
          "type": "string"
        }
      ],
      "payable": false,
      "stateMutability": "view",
      "type": "function"
    },
    {
      "constant": true,
      "inputs": [
        {
          "name": "",
          "type": "uint256"
        }
      ],
      "name": "betters",
      "outputs": [
        {
          "name": "",
          "type": "address"
        }
      ],
      "payable": false,
      "stateMutability": "view",
      "type": "function"
    },
    {
      "constant": true,
      "inputs": [],
      "name": "betAmount2",
      "outputs": [
        {
          "name": "",
          "type": "uint256"
        }
      ],
      "payable": false,
      "stateMutability": "view",
      "type": "function"
    },
    {
      "constant": true,
      "inputs": [],
      "name": "betAmount1",
      "outputs": [
        {
          "name": "",
          "type": "uint256"
        }
      ],
      "payable": false,
      "stateMutability": "view",
      "type": "function"
    },
    {
      "constant": true,
      "inputs": [],
      "name": "minimumBet",
      "outputs": [
        {
          "name": "",
          "type": "uint256"
        }
      ],
      "payable": false,
      "stateMutability": "view",
      "type": "function"
    },
    {
      "constant": true,
      "inputs": [],
      "name": "better1",
      "outputs": [
        {
          "name": "",
          "type": "address"
        }
      ],
      "payable": false,
      "stateMutability": "view",
      "type": "function"
    },
    {
      "constant": true,
      "inputs": [
        {
          "name": "",
          "type": "address"
        }
      ],
      "name": "betterDetails",
      "outputs": [
        {
          "name": "betAmount",
          "type": "uint256"
        },
        {
          "name": "selectedTeam",
          "type": "uint256"
        }
      ],
      "payable": false,
      "stateMutability": "view",
      "type": "function"
    },
    {
      "inputs": [
        {
          "name": "_better2",
          "type": "address"
        },
        {
          "name": "_teamName1",
          "type": "string"
        },
        {
          "name": "_teamName2",
          "type": "string"
        }
      ],
      "payable": true,
      "stateMutability": "payable",
      "type": "constructor"
    },
    {
      "constant": false,
      "inputs": [],
      "name": "acceptBet",
      "outputs": [],
      "payable": true,
      "stateMutability": "payable",
      "type": "function"
    },
    {
      "constant": false,
      "inputs": [
        {
          "name": "_winningTeamID",
          "type": "uint256"
        }
      ],
      "name": "getWinner",
      "outputs": [
        {
          "name": "",
          "type": "address"
        }
      ],
      "payable": false,
      "stateMutability": "nonpayable",
      "type": "function"
    },
    {
      "constant": true,
      "inputs": [],
      "name": "getBetAmount1",
      "outputs": [
        {
          "name": "",
          "type": "uint256"
        }
      ],
      "payable": false,
      "stateMutability": "view",
      "type": "function"
    },
    {
      "constant": true,
      "inputs": [],
      "name": "getBetAmount2",
      "outputs": [
        {
          "name": "",
          "type": "uint256"
        }
      ],
      "payable": false,
      "stateMutability": "view",
      "type": "function"
    }
  ],
  "bytecode": "0x6080604052604051610b5e380380610b5e83398101806040528101908080519060200190929190805182019291906020018051820192919050505033600460006101000a81548173ffffffffffffffffffffffffffffffffffffffff021916908373ffffffffffffffffffffffffffffffffffffffff16021790555082600560006101000a81548173ffffffffffffffffffffffffffffffffffffffff021916908373ffffffffffffffffffffffffffffffffffffffff16021790555081600690805190602001906100d29291906100f9565b5080600790805190602001906100e99291906100f9565b503460018190555050505061019e565b828054600181600116156101000203166002900490600052602060002090601f016020900481019282601f1061013a57805160ff1916838001178555610168565b82800160010185558215610168579182015b8281111561016757825182559160200191906001019061014c565b5b5090506101759190610179565b5090565b61019b91905b8082111561019757600081600090555060010161017f565b5090565b90565b6109b1806101ad6000396000f3006080604052600436106100d0576000357c0100000000000000000000000000000000000000000000000000000000900463ffffffff1680631bee51f3146100d557806324b570a91461012c57806330bfcb5f146101575780634129b2c91461016157806378ab1fa6146101ce57806387404da51461025e5780639fda5d62146102ee578063aa7061d81461035b578063b06c0c1714610386578063bdc497ef146103b1578063c318756b146103dc578063c38a8afd14610407578063d7f3193914610432578063d9a7812414610489575b600080fd5b3480156100e157600080fd5b506100ea6104e7565b604051808273ffffffffffffffffffffffffffffffffffffffff1673ffffffffffffffffffffffffffffffffffffffff16815260200191505060405180910390f35b34801561013857600080fd5b5061014161050d565b6040518082815260200191505060405180910390f35b61015f610513565b005b34801561016d57600080fd5b5061018c60048036038101908080359060200190929190505050610595565b604051808273ffffffffffffffffffffffffffffffffffffffff1673ffffffffffffffffffffffffffffffffffffffff16815260200191505060405180910390f35b3480156101da57600080fd5b506101e361079b565b6040518080602001828103825283818151815260200191508051906020019080838360005b83811015610223578082015181840152602081019050610208565b50505050905090810190601f1680156102505780820380516001836020036101000a031916815260200191505b509250505060405180910390f35b34801561026a57600080fd5b50610273610839565b6040518080602001828103825283818151815260200191508051906020019080838360005b838110156102b3578082015181840152602081019050610298565b50505050905090810190601f1680156102e05780820380516001836020036101000a031916815260200191505b509250505060405180910390f35b3480156102fa57600080fd5b50610319600480360381019080803590602001909291905050506108d7565b604051808273ffffffffffffffffffffffffffffffffffffffff1673ffffffffffffffffffffffffffffffffffffffff16815260200191505060405180910390f35b34801561036757600080fd5b50610370610915565b6040518082815260200191505060405180910390f35b34801561039257600080fd5b5061039b61091f565b6040518082815260200191505060405180910390f35b3480156103bd57600080fd5b506103c6610929565b6040518082815260200191505060405180910390f35b3480156103e857600080fd5b506103f161092f565b6040518082815260200191505060405180910390f35b34801561041357600080fd5b5061041c610935565b6040518082815260200191505060405180910390f35b34801561043e57600080fd5b5061044761093b565b604051808273ffffffffffffffffffffffffffffffffffffffff1673ffffffffffffffffffffffffffffffffffffffff16815260200191505060405180910390f35b34801561049557600080fd5b506104ca600480360381019080803573ffffffffffffffffffffffffffffffffffffffff169060200190929190505050610961565b604051808381526020018281526020019250505060405180910390f35b600560009054906101000a900473ffffffffffffffffffffffffffffffffffffffff1681565b60035481565b600560009054906101000a900473ffffffffffffffffffffffffffffffffffffffff1673ffffffffffffffffffffffffffffffffffffffff163373ffffffffffffffffffffffffffffffffffffffff1614151561056f57600080fd5b6001543414151561057f57600080fd5b3460028190555060015460025401600381905550565b6000600282111580156105a9575060008210155b15156105b457600080fd5b600182141561062d57600460009054906101000a900473ffffffffffffffffffffffffffffffffffffffff1673ffffffffffffffffffffffffffffffffffffffff166108fc6003549081150290604051600060405180830381858888f19350505050158015610627573d6000803e3d6000fd5b50610796565b60028214156106a657600560009054906101000a900473ffffffffffffffffffffffffffffffffffffffff1673ffffffffffffffffffffffffffffffffffffffff166108fc6003549081150290604051600060405180830381858888f193505050501580156106a0573d6000803e3d6000fd5b50610795565b600460009054906101000a900473ffffffffffffffffffffffffffffffffffffffff1673ffffffffffffffffffffffffffffffffffffffff166108fc60026003548115156106f057fe5b049081150290604051600060405180830381858888f1935050505015801561071c573d6000803e3d6000fd5b50600560009054906101000a900473ffffffffffffffffffffffffffffffffffffffff1673ffffffffffffffffffffffffffffffffffffffff166108fc600260035481151561076757fe5b049081150290604051600060405180830381858888f19350505050158015610793573d6000803e3d6000fd5b505b5b919050565b60078054600181600116156101000203166002900480601f0160208091040260200160405190810160405280929190818152602001828054600181600116156101000203166002900480156108315780601f1061080657610100808354040283529160200191610831565b820191906000526020600020905b81548152906001019060200180831161081457829003601f168201915b505050505081565b60068054600181600116156101000203166002900480601f0160208091040260200160405190810160405280929190818152602001828054600181600116156101000203166002900480156108cf5780601f106108a4576101008083540402835291602001916108cf565b820191906000526020600020905b8154815290600101906020018083116108b257829003601f168201915b505050505081565b6008818154811015156108e657fe5b906000526020600020016000915054906101000a900473ffffffffffffffffffffffffffffffffffffffff1681565b6000600254905090565b6000600154905090565b60025481565b60015481565b60005481565b600460009054906101000a900473ffffffffffffffffffffffffffffffffffffffff1681565b600960205280600052604060002060009150905080600001549080600101549050825600a165627a7a72305820d34477f1bfc985538c00c2f6ab77d96d16715fa4e550a6cbc2470efb163249fc0029",
  "source": "pragma solidity ^0.4.20;\n\n// import \"github.com/oraclize/ethereum-api/oraclizeAPI.sol\";\n\ncontract Betting {\n    // what uint should I use?\n    uint public minimumBet;\n    uint public betAmount1;\n    uint public betAmount2;\n    uint public totalPot;\n    \n    address public better1;\n    address public better2;\n\n    string public teamName1;\n    string public teamName2;\n    \n    address[] public betters;\n    \n    struct Better {\n        uint betAmount;\n        uint selectedTeam;\n    }\n    \n    mapping(address => Better) public betterDetails;\n    \n    constructor(address _better2, string _teamName1, string _teamName2) public payable {\n        better1 = msg.sender;\n        better2 = _better2;\n        teamName1 = _teamName1;\n        teamName2 = _teamName2;\n        betAmount1 = msg.value;\n    }\n    \n    function acceptBet() public payable {\n        require(msg.sender == better2);\n        require(msg.value == betAmount1);\n        betAmount2 = msg.value;\n        totalPot = betAmount2 + betAmount1;\n        \n    }\n    \n    function getWinner(uint _winningTeamID) public returns (address) {\n        require(_winningTeamID <= 2 && _winningTeamID >= 0);\n        if (_winningTeamID == 1) {\n             better1.transfer(totalPot);\n        } else if (_winningTeamID == 2) {\n             better2.transfer(totalPot);\n        } else {\n             better1.transfer(totalPot/2);\n             better2.transfer(totalPot/2);\n        }\n        \n    }\n    \n    \n    function getBetAmount1() public view returns (uint) {\n        return betAmount1;\n    }\n    \n    function getBetAmount2() public view returns (uint) {\n        return betAmount2;\n    }\n    \n}",
  "sourcePath": "/Users/kavilannair/Google Drive/ConsenSys/sport-wager/contracts/Betting.sol",
  "compiler": {
    "name": "solc",
    "version": "0.4.24+commit.e67f0147.Emscripten.clang"
  },
  "schemaVersion": "2.0.1",
  "updatedAt": "2018-08-24T11:05:23.019Z"
}